{
  "_format": "hh-sol-artifact-1",
  "contractName": "CharityCampaign",
  "sourceName": "contracts/CharityCampaign.sol",
  "abi": [
    {
      "inputs": [
        {
          "internalType": "address",
          "name": "_owner",
          "type": "address"
        },
        {
          "internalType": "uint96",
          "name": "_goal",
          "type": "uint96"
        },
        {
          "internalType": "uint64",
          "name": "_durationInSeconds",
          "type": "uint64"
        },
        {
          "internalType": "address",
          "name": "_platformRegistry",
          "type": "address"
        }
      ],
      "stateMutability": "nonpayable",
      "type": "constructor"
    },
    {
      "inputs": [],
      "name": "AddressZero",
      "type": "error"
    },
    {
      "inputs": [],
      "name": "AlreadyVoted",
      "type": "error"
    },
    {
      "inputs": [],
      "name": "CampaignHasEnded",
      "type": "error"
    },
    {
      "inputs": [],
      "name": "CampaignIsActive",
      "type": "error"
    },
    {
      "inputs": [],
      "name": "CampaignNotSuccessful",
      "type": "error"
    },
    {
      "inputs": [],
      "name": "GoalAlreadyReached",
      "type": "error"
    },
    {
      "inputs": [],
      "name": "GoalNotReached",
      "type": "error"
    },
    {
      "inputs": [
        {
          "internalType": "uint256",
          "name": "required",
          "type": "uint256"
        },
        {
          "internalType": "uint256",
          "name": "actual",
          "type": "uint256"
        }
      ],
      "name": "InsufficientApprovals",
      "type": "error"
    },
    {
      "inputs": [],
      "name": "InsufficientFundsInContract",
      "type": "error"
    },
    {
      "inputs": [],
      "name": "NotADonor",
      "type": "error"
    },
    {
      "inputs": [],
      "name": "NotOwner",
      "type": "error"
    },
    {
      "inputs": [],
      "name": "NothingToRefund",
      "type": "error"
    },
    {
      "inputs": [],
      "name": "ReentrancyGuardReentrantCall",
      "type": "error"
    },
    {
      "inputs": [],
      "name": "RequestAlreadyExecuted",
      "type": "error"
    },
    {
      "inputs": [],
      "name": "RequestDoesNotExist",
      "type": "error"
    },
    {
      "inputs": [],
      "name": "TransferFailed",
      "type": "error"
    },
    {
      "inputs": [],
      "name": "ZeroDonation",
      "type": "error"
    },
    {
      "anonymous": false,
      "inputs": [
        {
          "indexed": true,
          "internalType": "address",
          "name": "donor",
          "type": "address"
        },
        {
          "indexed": false,
          "internalType": "uint96",
          "name": "amount",
          "type": "uint96"
        },
        {
          "indexed": false,
          "internalType": "uint96",
          "name": "fee",
          "type": "uint96"
        }
      ],
      "name": "Donated",
      "type": "event"
    },
    {
      "anonymous": false,
      "inputs": [
        {
          "indexed": true,
          "internalType": "address",
          "name": "donor",
          "type": "address"
        },
        {
          "indexed": false,
          "internalType": "uint96",
          "name": "amount",
          "type": "uint96"
        }
      ],
      "name": "Refunded",
      "type": "event"
    },
    {
      "anonymous": false,
      "inputs": [
        {
          "indexed": true,
          "internalType": "uint64",
          "name": "requestId",
          "type": "uint64"
        },
        {
          "indexed": false,
          "internalType": "string",
          "name": "description",
          "type": "string"
        },
        {
          "indexed": false,
          "internalType": "uint96",
          "name": "amount",
          "type": "uint96"
        },
        {
          "indexed": true,
          "internalType": "address",
          "name": "recipient",
          "type": "address"
        }
      ],
      "name": "RequestCreated",
      "type": "event"
    },
    {
      "anonymous": false,
      "inputs": [
        {
          "indexed": true,
          "internalType": "uint64",
          "name": "requestId",
          "type": "uint64"
        },
        {
          "indexed": false,
          "internalType": "uint96",
          "name": "amount",
          "type": "uint96"
        }
      ],
      "name": "RequestExecuted",
      "type": "event"
    },
    {
      "anonymous": false,
      "inputs": [
        {
          "indexed": true,
          "internalType": "uint64",
          "name": "requestId",
          "type": "uint64"
        },
        {
          "indexed": true,
          "internalType": "address",
          "name": "voter",
          "type": "address"
        },
        {
          "indexed": false,
          "internalType": "uint96",
          "name": "voteWeight",
          "type": "uint96"
        }
      ],
      "name": "RequestVoted",
      "type": "event"
    },
    {
      "inputs": [
        {
          "internalType": "string",
          "name": "_description",
          "type": "string"
        },
        {
          "internalType": "uint96",
          "name": "_amount",
          "type": "uint96"
        },
        {
          "internalType": "address payable",
          "name": "_recipient",
          "type": "address"
        }
      ],
      "name": "createSpendingRequest",
      "outputs": [],
      "stateMutability": "nonpayable",
      "type": "function"
    },
    {
      "inputs": [],
      "name": "deadline",
      "outputs": [
        {
          "internalType": "uint64",
          "name": "",
          "type": "uint64"
        }
      ],
      "stateMutability": "view",
      "type": "function"
    },
    {
      "inputs": [],
      "name": "donate",
      "outputs": [],
      "stateMutability": "payable",
      "type": "function"
    },
    {
      "inputs": [
        {
          "internalType": "address",
          "name": "",
          "type": "address"
        }
      ],
      "name": "donations",
      "outputs": [
        {
          "internalType": "uint96",
          "name": "",
          "type": "uint96"
        }
      ],
      "stateMutability": "view",
      "type": "function"
    },
    {
      "inputs": [
        {
          "internalType": "uint64",
          "name": "_requestId",
          "type": "uint64"
        }
      ],
      "name": "executeRequest",
      "outputs": [],
      "stateMutability": "nonpayable",
      "type": "function"
    },
    {
      "inputs": [],
      "name": "getAvailableFunds",
      "outputs": [
        {
          "internalType": "uint256",
          "name": "",
          "type": "uint256"
        }
      ],
      "stateMutability": "view",
      "type": "function"
    },
    {
      "inputs": [],
      "name": "getContractBalance",
      "outputs": [
        {
          "internalType": "uint256",
          "name": "",
          "type": "uint256"
        }
      ],
      "stateMutability": "view",
      "type": "function"
    },
    {
      "inputs": [],
      "name": "getStatus",
      "outputs": [
        {
          "internalType": "string",
          "name": "",
          "type": "string"
        }
      ],
      "stateMutability": "view",
      "type": "function"
    },
    {
      "inputs": [],
      "name": "goal",
      "outputs": [
        {
          "internalType": "uint96",
          "name": "",
          "type": "uint96"
        }
      ],
      "stateMutability": "view",
      "type": "function"
    },
    {
      "inputs": [],
      "name": "goalReached",
      "outputs": [
        {
          "internalType": "bool",
          "name": "",
          "type": "bool"
        }
      ],
      "stateMutability": "view",
      "type": "function"
    },
    {
      "inputs": [],
      "name": "nextRequestId",
      "outputs": [
        {
          "internalType": "uint64",
          "name": "",
          "type": "uint64"
        }
      ],
      "stateMutability": "view",
      "type": "function"
    },
    {
      "inputs": [],
      "name": "owner",
      "outputs": [
        {
          "internalType": "address",
          "name": "",
          "type": "address"
        }
      ],
      "stateMutability": "view",
      "type": "function"
    },
    {
      "inputs": [],
      "name": "platformRegistry",
      "outputs": [
        {
          "internalType": "contract IPlatformRegistry",
          "name": "",
          "type": "address"
        }
      ],
      "stateMutability": "view",
      "type": "function"
    },
    {
      "inputs": [],
      "name": "refundIfFailed",
      "outputs": [],
      "stateMutability": "nonpayable",
      "type": "function"
    },
    {
      "inputs": [
        {
          "internalType": "uint64",
          "name": "",
          "type": "uint64"
        },
        {
          "internalType": "address",
          "name": "",
          "type": "address"
        }
      ],
      "name": "requestVoters",
      "outputs": [
        {
          "internalType": "bool",
          "name": "",
          "type": "bool"
        }
      ],
      "stateMutability": "view",
      "type": "function"
    },
    {
      "inputs": [
        {
          "internalType": "uint64",
          "name": "",
          "type": "uint64"
        }
      ],
      "name": "spendingRequests",
      "outputs": [
        {
          "internalType": "bytes32",
          "name": "descriptionHash",
          "type": "bytes32"
        },
        {
          "internalType": "uint96",
          "name": "amount",
          "type": "uint96"
        },
        {
          "internalType": "address payable",
          "name": "recipient",
          "type": "address"
        },
        {
          "internalType": "bool",
          "name": "executed",
          "type": "bool"
        },
        {
          "internalType": "uint96",
          "name": "approvalVotes",
          "type": "uint96"
        }
      ],
      "stateMutability": "view",
      "type": "function"
    },
    {
      "inputs": [],
      "name": "totalDonated",
      "outputs": [
        {
          "internalType": "uint96",
          "name": "",
          "type": "uint96"
        }
      ],
      "stateMutability": "view",
      "type": "function"
    },
    {
      "inputs": [],
      "name": "totalSpent",
      "outputs": [
        {
          "internalType": "uint96",
          "name": "",
          "type": "uint96"
        }
      ],
      "stateMutability": "view",
      "type": "function"
    },
    {
      "inputs": [
        {
          "internalType": "uint64",
          "name": "_requestId",
          "type": "uint64"
        }
      ],
      "name": "voteForRequest",
      "outputs": [],
      "stateMutability": "nonpayable",
      "type": "function"
    },
    {
      "stateMutability": "payable",
      "type": "receive"
    }
  ],
  "bytecode": "0x6101006040526000600160006101000a8154816bffffffffffffffffffffffff02191690836bffffffffffffffffffffffff16021790555060006001600c6101000a8154816bffffffffffffffffffffffff02191690836bffffffffffffffffffffffff1602179055506000600160186101000a81548160ff02191690831515021790555034801561009057600080fd5b50604051612b1b380380612b1b83398181016040528101906100b291906102fb565b6001600081905550600073ffffffffffffffffffffffffffffffffffffffff168473ffffffffffffffffffffffffffffffffffffffff1614806101215750600073ffffffffffffffffffffffffffffffffffffffff168173ffffffffffffffffffffffffffffffffffffffff16145b15610158576040517f9fabe1c100000000000000000000000000000000000000000000000000000000815260040160405180910390fd5b8373ffffffffffffffffffffffffffffffffffffffff1660808173ffffffffffffffffffffffffffffffffffffffff1681525050826bffffffffffffffffffffffff1660c0816bffffffffffffffffffffffff168152505081426101bc9190610391565b67ffffffffffffffff1660e08167ffffffffffffffff16815250508073ffffffffffffffffffffffffffffffffffffffff1660a08173ffffffffffffffffffffffffffffffffffffffff1681525050505050506103cd565b600080fd5b600073ffffffffffffffffffffffffffffffffffffffff82169050919050565b600061024482610219565b9050919050565b61025481610239565b811461025f57600080fd5b50565b6000815190506102718161024b565b92915050565b60006bffffffffffffffffffffffff82169050919050565b61029881610277565b81146102a357600080fd5b50565b6000815190506102b58161028f565b92915050565b600067ffffffffffffffff82169050919050565b6102d8816102bb565b81146102e357600080fd5b50565b6000815190506102f5816102cf565b92915050565b6000806000806080858703121561031557610314610214565b5b600061032387828801610262565b9450506020610334878288016102a6565b9350506040610345878288016102e6565b925050606061035687828801610262565b91505092959194509250565b7f4e487b7100000000000000000000000000000000000000000000000000000000600052601160045260246000fd5b600061039c826102bb565b91506103a7836102bb565b9250828201905067ffffffffffffffff8111156103c7576103c6610362565b5b92915050565b60805160a05160c05160e0516126c161045a6000396000818161046501528181610dc401528181610e0e0152610fdb015260008181610502015281816108af01528181610b1b01528181610de8015261103f0152600081816105930152818161076a0152818161092701526116ee015260008181610a3001528181610faf015261182501526126c16000f3fe6080604052600436106101175760003560e01c80638da5cb5b116100a0578063ce63a53511610064578063ce63a5351461037f578063e9d54b01146103c0578063ed88c68e146103fd578063fb346eab14610407578063ff5adffa1461043257610126565b80638da5cb5b146102ac5780639049ac69146102d75780639b4ba435146102ee578063c255f87814610317578063cc6cb19a1461034257610126565b80634e69d560116100e75780634e69d560146101d55780635195bd29146102005780636a84a9851461022b5780636f9fb98a146102565780637d3d65221461028157610126565b8062b370441461012b578063186fdcb01461015657806329dcb0cf1461017f57806340193883146101aa57610126565b366101265761012461045b565b005b600080fd5b34801561013757600080fd5b50610140610a10565b60405161014d9190611dcc565b60405180910390f35b34801561016257600080fd5b5061017d60048036038101906101789190611ee0565b610a2e565b005b34801561018b57600080fd5b50610194610dc2565b6040516101a19190611f77565b60405180910390f35b3480156101b657600080fd5b506101bf610de6565b6040516101cc9190611dcc565b60405180910390f35b3480156101e157600080fd5b506101ea610e0a565b6040516101f79190612022565b60405180910390f35b34801561020c57600080fd5b50610215610f23565b604051610222919061205d565b60405180910390f35b34801561023757600080fd5b50610240610f78565b60405161024d9190611f77565b60405180910390f35b34801561026257600080fd5b5061026b610f92565b604051610278919061205d565b60405180910390f35b34801561028d57600080fd5b50610296610f9a565b6040516102a39190612093565b60405180910390f35b3480156102b857600080fd5b506102c1610fad565b6040516102ce91906120cf565b60405180910390f35b3480156102e357600080fd5b506102ec610fd1565b005b3480156102fa57600080fd5b5061031560048036038101906103109190612116565b611358565b005b34801561032357600080fd5b5061032c6116ec565b60405161033991906121a2565b60405180910390f35b34801561034e57600080fd5b50610369600480360381019061036491906121e9565b611710565b6040516103769190611dcc565b60405180910390f35b34801561038b57600080fd5b506103a660048036038101906103a19190612116565b61173b565b6040516103b795949392919061223e565b60405180910390f35b3480156103cc57600080fd5b506103e760048036038101906103e29190612291565b6117ce565b6040516103f49190612093565b60405180910390f35b61040561045b565b005b34801561041357600080fd5b5061041c6117fd565b6040516104299190611dcc565b60405180910390f35b34801561043e57600080fd5b5061045960048036038101906104549190612116565b61181b565b005b610463611d55565b7f000000000000000000000000000000000000000000000000000000000000000067ffffffffffffffff1642106104c6576040517f85b1d52800000000000000000000000000000000000000000000000000000000815260040160405180910390fd5b60003403610500576040517fc6e0724200000000000000000000000000000000000000000000000000000000815260040160405180910390fd5b7f00000000000000000000000000000000000000000000000000000000000000006bffffffffffffffffffffffff16600160009054906101000a90046bffffffffffffffffffffffff166bffffffffffffffffffffffff161061058f576040517f8cb8251e00000000000000000000000000000000000000000000000000000000815260040160405180910390fd5b60007f000000000000000000000000000000000000000000000000000000000000000073ffffffffffffffffffffffffffffffffffffffff166311efbf616040518163ffffffff1660e01b8152600401602060405180830381865afa1580156105fc573d6000803e3d6000fd5b505050506040513d601f19601f82011682018060405250810190610620919061230a565b90506000349050600060648360ff16836bffffffffffffffffffffffff166106489190612366565b61065291906123d7565b9050600081836106629190612408565b905080600560003373ffffffffffffffffffffffffffffffffffffffff1673ffffffffffffffffffffffffffffffffffffffff16815260200190815260200160002060008282829054906101000a90046bffffffffffffffffffffffff166106ca9190612448565b92506101000a8154816bffffffffffffffffffffffff02191690836bffffffffffffffffffffffff16021790555080600160008282829054906101000a90046bffffffffffffffffffffffff166107219190612448565b92506101000a8154816bffffffffffffffffffffffff02191690836bffffffffffffffffffffffff1602179055506000826bffffffffffffffffffffffff1611156108ad5760007f000000000000000000000000000000000000000000000000000000000000000073ffffffffffffffffffffffffffffffffffffffff16634e7ceacb6040518163ffffffff1660e01b8152600401602060405180830381865afa1580156107d3573d6000803e3d6000fd5b505050506040513d601f19601f820116820180604052508101906107f7919061249d565b905060008173ffffffffffffffffffffffffffffffffffffffff16846bffffffffffffffffffffffff1660405161082d906124fb565b60006040518083038185875af1925050503d806000811461086a576040519150601f19603f3d011682016040523d82523d6000602084013e61086f565b606091505b50509050806108aa576040517f90b8ec1800000000000000000000000000000000000000000000000000000000815260040160405180910390fd5b50505b7f00000000000000000000000000000000000000000000000000000000000000006bffffffffffffffffffffffff16600160009054906101000a90046bffffffffffffffffffffffff166bffffffffffffffffffffffff16106109255760018060186101000a81548160ff0219169083151502179055505b7f000000000000000000000000000000000000000000000000000000000000000073ffffffffffffffffffffffffffffffffffffffff166316ccc21f33836040518363ffffffff1660e01b8152600401610980929190612510565b600060405180830381600087803b15801561099a57600080fd5b505af11580156109ae573d6000803e3d6000fd5b505050503373ffffffffffffffffffffffffffffffffffffffff167fe671995dce33a7b2683f65b78152d9f3bbedfad45ec565a28342212f653a5b9b82846040516109fa929190612539565b60405180910390a250505050610a0e611d9b565b565b600160009054906101000a90046bffffffffffffffffffffffff1681565b7f000000000000000000000000000000000000000000000000000000000000000073ffffffffffffffffffffffffffffffffffffffff163373ffffffffffffffffffffffffffffffffffffffff1614610ab3576040517f30cd747100000000000000000000000000000000000000000000000000000000815260040160405180910390fd5b600073ffffffffffffffffffffffffffffffffffffffff168173ffffffffffffffffffffffffffffffffffffffff1603610b19576040517f9fabe1c100000000000000000000000000000000000000000000000000000000815260040160405180910390fd5b7f00000000000000000000000000000000000000000000000000000000000000006bffffffffffffffffffffffff16600160009054906101000a90046bffffffffffffffffffffffff166bffffffffffffffffffffffff161015610ba9576040517f78c754c900000000000000000000000000000000000000000000000000000000815260040160405180910390fd5b60006001600c9054906101000a90046bffffffffffffffffffffffff16600160009054906101000a90046bffffffffffffffffffffffff16610beb9190612408565b9050806bffffffffffffffffffffffff16836bffffffffffffffffffffffff161115610c43576040517fdd4f110200000000000000000000000000000000000000000000000000000000815260040160405180910390fd5b600060026000600460009054906101000a900467ffffffffffffffff1667ffffffffffffffff1667ffffffffffffffff1681526020019081526020016000209050838160010160006101000a8154816bffffffffffffffffffffffff02191690836bffffffffffffffffffffffff1602179055508281600101600c6101000a81548173ffffffffffffffffffffffffffffffffffffffff021916908373ffffffffffffffffffffffffffffffffffffffff1602179055508273ffffffffffffffffffffffffffffffffffffffff16600460009054906101000a900467ffffffffffffffff1667ffffffffffffffff167f25466d9bf21f5a4b190f730ff5dc6c5ea313328377af40396234224d7d2a2441888888604051610d659392919061259e565b60405180910390a36004600081819054906101000a900467ffffffffffffffff1680929190610d93906125d0565b91906101000a81548167ffffffffffffffff021916908367ffffffffffffffff16021790555050505050505050565b7f000000000000000000000000000000000000000000000000000000000000000081565b7f000000000000000000000000000000000000000000000000000000000000000081565b60607f000000000000000000000000000000000000000000000000000000000000000067ffffffffffffffff164210158015610e535750600160189054906101000a900460ff16155b15610e95576040518060400160405280600681526020017f4661696c656400000000000000000000000000000000000000000000000000008152509050610f20565b600160189054906101000a900460ff1615610ee7576040518060400160405280600781526020017f53756363657373000000000000000000000000000000000000000000000000008152509050610f20565b6040518060400160405280600681526020017f416374697665000000000000000000000000000000000000000000000000000081525090505b90565b60006001600c9054906101000a90046bffffffffffffffffffffffff16600160009054906101000a90046bffffffffffffffffffffffff16610f659190612408565b6bffffffffffffffffffffffff16905090565b600460009054906101000a900467ffffffffffffffff1681565b600047905090565b600160189054906101000a900460ff1681565b7f000000000000000000000000000000000000000000000000000000000000000081565b610fd9611d55565b7f000000000000000000000000000000000000000000000000000000000000000067ffffffffffffffff1642101561103d576040517f4ce2289a00000000000000000000000000000000000000000000000000000000815260040160405180910390fd5b7f00000000000000000000000000000000000000000000000000000000000000006bffffffffffffffffffffffff16600160009054906101000a90046bffffffffffffffffffffffff166bffffffffffffffffffffffff16106110cc576040517f0f7fe27100000000000000000000000000000000000000000000000000000000815260040160405180910390fd5b6000600560003373ffffffffffffffffffffffffffffffffffffffff1673ffffffffffffffffffffffffffffffffffffffff16815260200190815260200160002060009054906101000a90046bffffffffffffffffffffffff1690506000816bffffffffffffffffffffffff1603611170576040517ff76aef6500000000000000000000000000000000000000000000000000000000815260040160405180910390fd5b6000600560003373ffffffffffffffffffffffffffffffffffffffff1673ffffffffffffffffffffffffffffffffffffffff16815260200190815260200160002060006101000a8154816bffffffffffffffffffffffff02191690836bffffffffffffffffffffffff16021790555060003373ffffffffffffffffffffffffffffffffffffffff16826bffffffffffffffffffffffff16604051611213906124fb565b60006040518083038185875af1925050503d8060008114611250576040519150601f19603f3d011682016040523d82523d6000602084013e611255565b606091505b50509050806112fe5781600560003373ffffffffffffffffffffffffffffffffffffffff1673ffffffffffffffffffffffffffffffffffffffff16815260200190815260200160002060006101000a8154816bffffffffffffffffffffffff02191690836bffffffffffffffffffffffff1602179055506040517f90b8ec1800000000000000000000000000000000000000000000000000000000815260040160405180910390fd5b3373ffffffffffffffffffffffffffffffffffffffff167f886c1b2b2a82376847f6d741594f28408de945c8317cf00891b91ec0ea512243836040516113449190611dcc565b60405180910390a25050611356611d9b565b565b6000600560003373ffffffffffffffffffffffffffffffffffffffff1673ffffffffffffffffffffffffffffffffffffffff16815260200190815260200160002060009054906101000a90046bffffffffffffffffffffffff166bffffffffffffffffffffffff16036113f7576040517f4862d81300000000000000000000000000000000000000000000000000000000815260040160405180910390fd5b6000600260008367ffffffffffffffff1667ffffffffffffffff16815260200190815260200160002090506000801b816000015403611462576040517fe06f976a00000000000000000000000000000000000000000000000000000000815260040160405180910390fd5b600360008367ffffffffffffffff1667ffffffffffffffff16815260200190815260200160002060003373ffffffffffffffffffffffffffffffffffffffff1673ffffffffffffffffffffffffffffffffffffffff16815260200190815260200160002060009054906101000a900460ff161561150b576040517f7c9a1cf900000000000000000000000000000000000000000000000000000000815260040160405180910390fd5b6001600360008467ffffffffffffffff1667ffffffffffffffff16815260200190815260200160002060003373ffffffffffffffffffffffffffffffffffffffff1673ffffffffffffffffffffffffffffffffffffffff16815260200190815260200160002060006101000a81548160ff021916908315150217905550600560003373ffffffffffffffffffffffffffffffffffffffff1673ffffffffffffffffffffffffffffffffffffffff16815260200190815260200160002060009054906101000a90046bffffffffffffffffffffffff168160020160018282829054906101000a90046bffffffffffffffffffffffff1661160a9190612448565b92506101000a8154816bffffffffffffffffffffffff02191690836bffffffffffffffffffffffff1602179055503373ffffffffffffffffffffffffffffffffffffffff168267ffffffffffffffff167f6c979a638391a867e568d3c58bc61db3ca3ab8acfee9b1fc3f902c335e315878600560003373ffffffffffffffffffffffffffffffffffffffff1673ffffffffffffffffffffffffffffffffffffffff16815260200190815260200160002060009054906101000a90046bffffffffffffffffffffffff166040516116e09190611dcc565b60405180910390a35050565b7f000000000000000000000000000000000000000000000000000000000000000081565b60056020528060005260406000206000915054906101000a90046bffffffffffffffffffffffff1681565b60026020528060005260406000206000915090508060000154908060010160009054906101000a90046bffffffffffffffffffffffff169080600101600c9054906101000a900473ffffffffffffffffffffffffffffffffffffffff16908060020160009054906101000a900460ff16908060020160019054906101000a90046bffffffffffffffffffffffff16905085565b60036020528160005260406000206020528060005260406000206000915091509054906101000a900460ff1681565b6001600c9054906101000a90046bffffffffffffffffffffffff1681565b611823611d55565b7f000000000000000000000000000000000000000000000000000000000000000073ffffffffffffffffffffffffffffffffffffffff163373ffffffffffffffffffffffffffffffffffffffff16146118a8576040517f30cd747100000000000000000000000000000000000000000000000000000000815260040160405180910390fd5b6000600260008367ffffffffffffffff1667ffffffffffffffff16815260200190815260200160002090506000801b816000015403611913576040517fe06f976a00000000000000000000000000000000000000000000000000000000815260040160405180910390fd5b8060020160009054906101000a900460ff161561195c576040517fd6f1f94600000000000000000000000000000000000000000000000000000000815260040160405180910390fd5b60006002600160009054906101000a90046bffffffffffffffffffffffff166119859190612600565b9050806bffffffffffffffffffffffff168260020160019054906101000a90046bffffffffffffffffffffffff166bffffffffffffffffffffffff1611611a2157808260020160019054906101000a90046bffffffffffffffffffffffff166040517f5ab46175000000000000000000000000000000000000000000000000000000008152600401611a18929190612662565b60405180910390fd5b60006001600c9054906101000a90046bffffffffffffffffffffffff16600160009054906101000a90046bffffffffffffffffffffffff16611a639190612408565b9050806bffffffffffffffffffffffff168360010160009054906101000a90046bffffffffffffffffffffffff166bffffffffffffffffffffffff161115611ad7576040517fdd4f110200000000000000000000000000000000000000000000000000000000815260040160405180910390fd5b60018360020160006101000a81548160ff0219169083151502179055508260010160009054906101000a90046bffffffffffffffffffffffff166001600c8282829054906101000a90046bffffffffffffffffffffffff16611b399190612448565b92506101000a8154816bffffffffffffffffffffffff02191690836bffffffffffffffffffffffff160217905550600083600101600c9054906101000a900473ffffffffffffffffffffffffffffffffffffffff1673ffffffffffffffffffffffffffffffffffffffff168460010160009054906101000a90046bffffffffffffffffffffffff166bffffffffffffffffffffffff16604051611bdb906124fb565b60006040518083038185875af1925050503d8060008114611c18576040519150601f19603f3d011682016040523d82523d6000602084013e611c1d565b606091505b5050905080611ce85760008460020160006101000a81548160ff0219169083151502179055508360010160009054906101000a90046bffffffffffffffffffffffff166001600c8282829054906101000a90046bffffffffffffffffffffffff16611c889190612408565b92506101000a8154816bffffffffffffffffffffffff02191690836bffffffffffffffffffffffff1602179055506040517f90b8ec1800000000000000000000000000000000000000000000000000000000815260040160405180910390fd5b8467ffffffffffffffff167f318e144f554e81ec5ad67cee9f09efed8a3ca878b54a0bdb36a7e37506c8a0658560010160009054906101000a90046bffffffffffffffffffffffff16604051611d3e9190611dcc565b60405180910390a250505050611d52611d9b565b50565b600260005403611d91576040517f3ee5aeb500000000000000000000000000000000000000000000000000000000815260040160405180910390fd5b6002600081905550565b6001600081905550565b60006bffffffffffffffffffffffff82169050919050565b611dc681611da5565b82525050565b6000602082019050611de16000830184611dbd565b92915050565b600080fd5b600080fd5b600080fd5b600080fd5b600080fd5b60008083601f840112611e1657611e15611df1565b5b8235905067ffffffffffffffff811115611e3357611e32611df6565b5b602083019150836001820283011115611e4f57611e4e611dfb565b5b9250929050565b611e5f81611da5565b8114611e6a57600080fd5b50565b600081359050611e7c81611e56565b92915050565b600073ffffffffffffffffffffffffffffffffffffffff82169050919050565b6000611ead82611e82565b9050919050565b611ebd81611ea2565b8114611ec857600080fd5b50565b600081359050611eda81611eb4565b92915050565b60008060008060608587031215611efa57611ef9611de7565b5b600085013567ffffffffffffffff811115611f1857611f17611dec565b5b611f2487828801611e00565b94509450506020611f3787828801611e6d565b9250506040611f4887828801611ecb565b91505092959194509250565b600067ffffffffffffffff82169050919050565b611f7181611f54565b82525050565b6000602082019050611f8c6000830184611f68565b92915050565b600081519050919050565b600082825260208201905092915050565b60005b83811015611fcc578082015181840152602081019050611fb1565b60008484015250505050565b6000601f19601f8301169050919050565b6000611ff482611f92565b611ffe8185611f9d565b935061200e818560208601611fae565b61201781611fd8565b840191505092915050565b6000602082019050818103600083015261203c8184611fe9565b905092915050565b6000819050919050565b61205781612044565b82525050565b6000602082019050612072600083018461204e565b92915050565b60008115159050919050565b61208d81612078565b82525050565b60006020820190506120a86000830184612084565b92915050565b60006120b982611e82565b9050919050565b6120c9816120ae565b82525050565b60006020820190506120e460008301846120c0565b92915050565b6120f381611f54565b81146120fe57600080fd5b50565b600081359050612110816120ea565b92915050565b60006020828403121561212c5761212b611de7565b5b600061213a84828501612101565b91505092915050565b6000819050919050565b600061216861216361215e84611e82565b612143565b611e82565b9050919050565b600061217a8261214d565b9050919050565b600061218c8261216f565b9050919050565b61219c81612181565b82525050565b60006020820190506121b76000830184612193565b92915050565b6121c6816120ae565b81146121d157600080fd5b50565b6000813590506121e3816121bd565b92915050565b6000602082840312156121ff576121fe611de7565b5b600061220d848285016121d4565b91505092915050565b6000819050919050565b61222981612216565b82525050565b61223881611ea2565b82525050565b600060a0820190506122536000830188612220565b6122606020830187611dbd565b61226d604083018661222f565b61227a6060830185612084565b6122876080830184611dbd565b9695505050505050565b600080604083850312156122a8576122a7611de7565b5b60006122b685828601612101565b92505060206122c7858286016121d4565b9150509250929050565b600060ff82169050919050565b6122e7816122d1565b81146122f257600080fd5b50565b600081519050612304816122de565b92915050565b6000602082840312156123205761231f611de7565b5b600061232e848285016122f5565b91505092915050565b7f4e487b7100000000000000000000000000000000000000000000000000000000600052601160045260246000fd5b600061237182612044565b915061237c83612044565b925082820261238a81612044565b915082820484148315176123a1576123a0612337565b5b5092915050565b7f4e487b7100000000000000000000000000000000000000000000000000000000600052601260045260246000fd5b60006123e282612044565b91506123ed83612044565b9250826123fd576123fc6123a8565b5b828204905092915050565b600061241382611da5565b915061241e83611da5565b925082820390506bffffffffffffffffffffffff81111561244257612441612337565b5b92915050565b600061245382611da5565b915061245e83611da5565b925082820190506bffffffffffffffffffffffff81111561248257612481612337565b5b92915050565b600081519050612497816121bd565b92915050565b6000602082840312156124b3576124b2611de7565b5b60006124c184828501612488565b91505092915050565b600081905092915050565b50565b60006124e56000836124ca565b91506124f0826124d5565b600082019050919050565b6000612506826124d8565b9150819050919050565b600060408201905061252560008301856120c0565b6125326020830184611dbd565b9392505050565b600060408201905061254e6000830185611dbd565b61255b6020830184611dbd565b9392505050565b82818337600083830152505050565b600061257d8385611f9d565b935061258a838584612562565b61259383611fd8565b840190509392505050565b600060408201905081810360008301526125b9818587612571565b90506125c86020830184611dbd565b949350505050565b60006125db82611f54565b915067ffffffffffffffff82036125f5576125f4612337565b5b600182019050919050565b600061260b82611da5565b915061261683611da5565b925082612626576126256123a8565b5b828204905092915050565b600061264c61264761264284611da5565b612143565b612044565b9050919050565b61265c81612631565b82525050565b60006040820190506126776000830185612653565b6126846020830184612653565b939250505056fea2646970667358221220ede751e35df99af6b9b0a30cf2afbc192443f183211e8f0cbb355a2453f2a0c664736f6c634300081c0033",
  "linkReferences": {},
  "deployedLinkReferences": {}
}