{
  "_format": "hh-sol-artifact-1",
  "contractName": "PlatformRegistry",
  "sourceName": "contracts/PlatformRegistry.sol",
  "abi": [
    {
      "inputs": [
        {
          "internalType": "address",
          "name": "initialOwner",
          "type": "address"
        },
        {
          "internalType": "uint8",
          "name": "initialFeePercentage",
          "type": "uint8"
        },
        {
          "internalType": "address",
          "name": "tokenAddress",
          "type": "address"
        }
      ],
      "stateMutability": "nonpayable",
      "type": "constructor"
    },
    {
      "inputs": [],
      "name": "AddressZero",
      "type": "error"
    },
    {
      "inputs": [],
      "name": "InsufficientFundsInContract",
      "type": "error"
    },
    {
      "inputs": [],
      "name": "InvalidFeePercentage",
      "type": "error"
    },
    {
      "inputs": [],
      "name": "InvalidParameters",
      "type": "error"
    },
    {
      "inputs": [],
      "name": "NotACampaignContract",
      "type": "error"
    },
    {
      "inputs": [],
      "name": "NothingToWithdraw",
      "type": "error"
    },
    {
      "inputs": [],
      "name": "OrganizationIsNotVerified",
      "type": "error"
    },
    {
      "inputs": [
        {
          "internalType": "address",
          "name": "owner",
          "type": "address"
        }
      ],
      "name": "OwnableInvalidOwner",
      "type": "error"
    },
    {
      "inputs": [
        {
          "internalType": "address",
          "name": "account",
          "type": "address"
        }
      ],
      "name": "OwnableUnauthorizedAccount",
      "type": "error"
    },
    {
      "inputs": [],
      "name": "TransferFailed",
      "type": "error"
    },
    {
      "inputs": [],
      "name": "ZeroAmount",
      "type": "error"
    },
    {
      "anonymous": false,
      "inputs": [
        {
          "indexed": true,
          "internalType": "uint256",
          "name": "campaignId",
          "type": "uint256"
        },
        {
          "indexed": true,
          "internalType": "address",
          "name": "campaignAddress",
          "type": "address"
        },
        {
          "indexed": true,
          "internalType": "address",
          "name": "creator",
          "type": "address"
        }
      ],
      "name": "CampaignCreated",
      "type": "event"
    },
    {
      "anonymous": false,
      "inputs": [
        {
          "indexed": false,
          "internalType": "address",
          "name": "newAddress",
          "type": "address"
        }
      ],
      "name": "FeeAddressChanged",
      "type": "event"
    },
    {
      "anonymous": false,
      "inputs": [
        {
          "indexed": false,
          "internalType": "uint8",
          "name": "newFee",
          "type": "uint8"
        }
      ],
      "name": "FeePercentageChanged",
      "type": "event"
    },
    {
      "anonymous": false,
      "inputs": [
        {
          "indexed": true,
          "internalType": "address",
          "name": "to",
          "type": "address"
        },
        {
          "indexed": false,
          "internalType": "uint96",
          "name": "amount",
          "type": "uint96"
        }
      ],
      "name": "FeesWithdrawn",
      "type": "event"
    },
    {
      "anonymous": false,
      "inputs": [
        {
          "indexed": true,
          "internalType": "address",
          "name": "organizationAddress",
          "type": "address"
        },
        {
          "indexed": false,
          "internalType": "bool",
          "name": "isVerified",
          "type": "bool"
        }
      ],
      "name": "OrganizationVerified",
      "type": "event"
    },
    {
      "anonymous": false,
      "inputs": [
        {
          "indexed": true,
          "internalType": "address",
          "name": "previousOwner",
          "type": "address"
        },
        {
          "indexed": true,
          "internalType": "address",
          "name": "newOwner",
          "type": "address"
        }
      ],
      "name": "OwnershipTransferred",
      "type": "event"
    },
    {
      "inputs": [],
      "name": "MAX_FEE_PERCENTAGE",
      "outputs": [
        {
          "internalType": "uint8",
          "name": "",
          "type": "uint8"
        }
      ],
      "stateMutability": "view",
      "type": "function"
    },
    {
      "inputs": [],
      "name": "TOKEN_REWARD_RATE",
      "outputs": [
        {
          "internalType": "uint96",
          "name": "",
          "type": "uint96"
        }
      ],
      "stateMutability": "view",
      "type": "function"
    },
    {
      "inputs": [
        {
          "internalType": "uint256",
          "name": "",
          "type": "uint256"
        }
      ],
      "name": "allCampaigns",
      "outputs": [
        {
          "internalType": "address",
          "name": "campaignAddress",
          "type": "address"
        },
        {
          "internalType": "address",
          "name": "owner",
          "type": "address"
        },
        {
          "internalType": "uint96",
          "name": "goal",
          "type": "uint96"
        },
        {
          "internalType": "uint64",
          "name": "deadline",
          "type": "uint64"
        }
      ],
      "stateMutability": "view",
      "type": "function"
    },
    {
      "inputs": [
        {
          "internalType": "uint96",
          "name": "_goal",
          "type": "uint96"
        },
        {
          "internalType": "uint64",
          "name": "_durationInSeconds",
          "type": "uint64"
        }
      ],
      "name": "createCampaign",
      "outputs": [
        {
          "internalType": "address",
          "name": "",
          "type": "address"
        }
      ],
      "stateMutability": "nonpayable",
      "type": "function"
    },
    {
      "inputs": [],
      "name": "feeAddress",
      "outputs": [
        {
          "internalType": "address",
          "name": "",
          "type": "address"
        }
      ],
      "stateMutability": "view",
      "type": "function"
    },
    {
      "inputs": [
        {
          "internalType": "uint64",
          "name": "_campaignId",
          "type": "uint64"
        }
      ],
      "name": "getCampaignInfo",
      "outputs": [
        {
          "components": [
            {
              "internalType": "address",
              "name": "campaignAddress",
              "type": "address"
            },
            {
              "internalType": "address",
              "name": "owner",
              "type": "address"
            },
            {
              "internalType": "uint96",
              "name": "goal",
              "type": "uint96"
            },
            {
              "internalType": "uint64",
              "name": "deadline",
              "type": "uint64"
            }
          ],
          "internalType": "struct PlatformRegistry.CampaignInfo",
          "name": "",
          "type": "tuple"
        }
      ],
      "stateMutability": "view",
      "type": "function"
    },
    {
      "inputs": [],
      "name": "getFeeAddress",
      "outputs": [
        {
          "internalType": "address",
          "name": "",
          "type": "address"
        }
      ],
      "stateMutability": "view",
      "type": "function"
    },
    {
      "inputs": [],
      "name": "getFeePercentage",
      "outputs": [
        {
          "internalType": "uint8",
          "name": "",
          "type": "uint8"
        }
      ],
      "stateMutability": "view",
      "type": "function"
    },
    {
      "inputs": [
        {
          "internalType": "address",
          "name": "",
          "type": "address"
        }
      ],
      "name": "isCampaign",
      "outputs": [
        {
          "internalType": "bool",
          "name": "",
          "type": "bool"
        }
      ],
      "stateMutability": "view",
      "type": "function"
    },
    {
      "inputs": [
        {
          "internalType": "address",
          "name": "",
          "type": "address"
        },
        {
          "internalType": "uint256",
          "name": "",
          "type": "uint256"
        }
      ],
      "name": "organizationCampaigns",
      "outputs": [
        {
          "internalType": "uint256",
          "name": "",
          "type": "uint256"
        }
      ],
      "stateMutability": "view",
      "type": "function"
    },
    {
      "inputs": [],
      "name": "owner",
      "outputs": [
        {
          "internalType": "address",
          "name": "",
          "type": "address"
        }
      ],
      "stateMutability": "view",
      "type": "function"
    },
    {
      "inputs": [],
      "name": "platformToken",
      "outputs": [
        {
          "internalType": "contract PlatformToken",
          "name": "",
          "type": "address"
        }
      ],
      "stateMutability": "view",
      "type": "function"
    },
    {
      "inputs": [],
      "name": "renounceOwnership",
      "outputs": [],
      "stateMutability": "nonpayable",
      "type": "function"
    },
    {
      "inputs": [
        {
          "internalType": "address",
          "name": "_donor",
          "type": "address"
        },
        {
          "internalType": "uint96",
          "name": "_amount",
          "type": "uint96"
        }
      ],
      "name": "rewardDonor",
      "outputs": [],
      "stateMutability": "nonpayable",
      "type": "function"
    },
    {
      "inputs": [
        {
          "internalType": "address",
          "name": "_newAddress",
          "type": "address"
        }
      ],
      "name": "setFeeAddress",
      "outputs": [],
      "stateMutability": "nonpayable",
      "type": "function"
    },
    {
      "inputs": [
        {
          "internalType": "uint8",
          "name": "_newFee",
          "type": "uint8"
        }
      ],
      "name": "setFeePercentage",
      "outputs": [],
      "stateMutability": "nonpayable",
      "type": "function"
    },
    {
      "inputs": [
        {
          "internalType": "address",
          "name": "newOwner",
          "type": "address"
        }
      ],
      "name": "transferOwnership",
      "outputs": [],
      "stateMutability": "nonpayable",
      "type": "function"
    },
    {
      "inputs": [
        {
          "internalType": "address",
          "name": "",
          "type": "address"
        }
      ],
      "name": "verifiedOrganizations",
      "outputs": [
        {
          "internalType": "bool",
          "name": "",
          "type": "bool"
        }
      ],
      "stateMutability": "view",
      "type": "function"
    },
    {
      "inputs": [
        {
          "internalType": "address",
          "name": "_organizationAddress",
          "type": "address"
        },
        {
          "internalType": "bool",
          "name": "_isVerified",
          "type": "bool"
        }
      ],
      "name": "verifyOrganization",
      "outputs": [],
      "stateMutability": "nonpayable",
      "type": "function"
    },
    {
      "inputs": [
        {
          "internalType": "address payable",
          "name": "_to",
          "type": "address"
        },
        {
          "internalType": "uint96",
          "name": "_amount",
          "type": "uint96"
        }
      ],
      "name": "withdrawFees",
      "outputs": [],
      "stateMutability": "nonpayable",
      "type": "function"
    },
    {
      "stateMutability": "payable",
      "type": "receive"
    }
  ],
  "bytecode": "0x60a060405234801561001057600080fd5b50604051614bda380380614bda83398181016040528101906100329190610354565b82600073ffffffffffffffffffffffffffffffffffffffff168173ffffffffffffffffffffffffffffffffffffffff16036100a55760006040517f1e4fbdf700000000000000000000000000000000000000000000000000000000815260040161009c91906103b6565b60405180910390fd5b6100b4816101f460201b60201c565b50601e60ff168260ff1611156100f6576040517f721dbfea00000000000000000000000000000000000000000000000000000000815260040160405180910390fd5b600073ffffffffffffffffffffffffffffffffffffffff168173ffffffffffffffffffffffffffffffffffffffff160361015c576040517f9fabe1c100000000000000000000000000000000000000000000000000000000815260040160405180910390fd5b81600060146101000a81548160ff021916908360ff16021790555030600160006101000a81548173ffffffffffffffffffffffffffffffffffffffff021916908373ffffffffffffffffffffffffffffffffffffffff1602179055508073ffffffffffffffffffffffffffffffffffffffff1660808173ffffffffffffffffffffffffffffffffffffffff16815250505050506103d1565b60008060009054906101000a900473ffffffffffffffffffffffffffffffffffffffff169050816000806101000a81548173ffffffffffffffffffffffffffffffffffffffff021916908373ffffffffffffffffffffffffffffffffffffffff1602179055508173ffffffffffffffffffffffffffffffffffffffff168173ffffffffffffffffffffffffffffffffffffffff167f8be0079c531659141344cd1fd0a4f28419497f9722a3daafe3b4186f6b6457e060405160405180910390a35050565b600080fd5b600073ffffffffffffffffffffffffffffffffffffffff82169050919050565b60006102e8826102bd565b9050919050565b6102f8816102dd565b811461030357600080fd5b50565b600081519050610315816102ef565b92915050565b600060ff82169050919050565b6103318161031b565b811461033c57600080fd5b50565b60008151905061034e81610328565b92915050565b60008060006060848603121561036d5761036c6102b8565b5b600061037b86828701610306565b935050602061038c8682870161033f565b925050604061039d86828701610306565b9150509250925092565b6103b0816102dd565b82525050565b60006020820190506103cb60008301846103a7565b92915050565b6080516147e76103f3600039600081816106150152610abf01526147e76000f3fe6080604052600436106101235760003560e01c8063a509f4d1116100a0578063e2714e1b11610064578063e2714e1b146103d1578063eafd5d561461040e578063f17a8ea014610437578063f2c7428714610474578063f2fde38b146104b15761012a565b8063a509f4d1146102d7578063a5753f2c14610317578063a5766aa614610340578063c1530fec14610369578063d1b812cd146103a65761012a565b8063558e44d3116100e7578063558e44d3146102165780636203a99514610241578063715018a61461026c5780638705fcd4146102835780638da5cb5b146102ac5761012a565b8063069445dd1461012f57806311efbf611461016c57806316ccc21f1461019757806341275358146101c05780634e7ceacb146101eb5761012a565b3661012a57005b600080fd5b34801561013b57600080fd5b5061015660048036038101906101519190611511565b6104da565b6040516101639190611559565b60405180910390f35b34801561017857600080fd5b506101816104fa565b60405161018e9190611590565b60405180910390f35b3480156101a357600080fd5b506101be60048036038101906101b991906115ef565b610510565b005b3480156101cc57600080fd5b506101d56106a5565b6040516101e2919061163e565b60405180910390f35b3480156101f757600080fd5b506102006106cb565b60405161020d919061163e565b60405180910390f35b34801561022257600080fd5b5061022b6106f5565b6040516102389190611590565b60405180910390f35b34801561024d57600080fd5b506102566106fa565b6040516102639190611668565b60405180910390f35b34801561027857600080fd5b50610281610705565b005b34801561028f57600080fd5b506102aa60048036038101906102a59190611511565b610719565b005b3480156102b857600080fd5b506102c1610802565b6040516102ce919061163e565b60405180910390f35b3480156102e357600080fd5b506102fe60048036038101906102f991906116b9565b61082b565b60405161030e9493929190611709565b60405180910390f35b34801561032357600080fd5b5061033e6004803603810190610339919061177a565b6108d7565b005b34801561034c57600080fd5b50610367600480360381019061036291906117e6565b6109ee565b005b34801561037557600080fd5b50610390600480360381019061038b9190611813565b610a8c565b60405161039d9190611862565b60405180910390f35b3480156103b257600080fd5b506103bb610abd565b6040516103c891906118dc565b60405180910390f35b3480156103dd57600080fd5b506103f860048036038101906103f39190611511565b610ae1565b6040516104059190611559565b60405180910390f35b34801561041a57600080fd5b5061043560048036038101906104309190611935565b610b01565b005b34801561044357600080fd5b5061045e600480360381019061045991906119a1565b610d09565b60405161046b919061163e565b60405180910390f35b34801561048057600080fd5b5061049b600480360381019061049691906119e1565b6110fa565b6040516104a89190611a90565b60405180910390f35b3480156104bd57600080fd5b506104d860048036038101906104d39190611511565b61125c565b005b60026020528060005260406000206000915054906101000a900460ff1681565b60008060149054906101000a900460ff16905090565b6000816bffffffffffffffffffffffff1603610558576040517f1f2a200500000000000000000000000000000000000000000000000000000000815260040160405180910390fd5b600360003373ffffffffffffffffffffffffffffffffffffffff1673ffffffffffffffffffffffffffffffffffffffff16815260200190815260200160002060009054906101000a900460ff166105db576040517fc24c24c100000000000000000000000000000000000000000000000000000000815260040160405180910390fd5b6000670de0b6b3a7640000660aa87bee538000836105f99190611ada565b6106039190611b46565b6bffffffffffffffffffffffff1690507f000000000000000000000000000000000000000000000000000000000000000073ffffffffffffffffffffffffffffffffffffffff166340c10f1984836040518363ffffffff1660e01b815260040161066e929190611b77565b600060405180830381600087803b15801561068857600080fd5b505af115801561069c573d6000803e3d6000fd5b50505050505050565b600160009054906101000a900473ffffffffffffffffffffffffffffffffffffffff1681565b6000600160009054906101000a900473ffffffffffffffffffffffffffffffffffffffff16905090565b601e81565b660aa87bee53800081565b61070d6112e2565b6107176000611369565b565b6107216112e2565b600073ffffffffffffffffffffffffffffffffffffffff168173ffffffffffffffffffffffffffffffffffffffff1603610787576040517f9fabe1c100000000000000000000000000000000000000000000000000000000815260040160405180910390fd5b80600160006101000a81548173ffffffffffffffffffffffffffffffffffffffff021916908373ffffffffffffffffffffffffffffffffffffffff1602179055507fd1e93c69f2847f79bfa4d71704aaa84a581729b4b1706d922ee42ba1848a45c9816040516107f7919061163e565b60405180910390a150565b60008060009054906101000a900473ffffffffffffffffffffffffffffffffffffffff16905090565b6004818154811061083b57600080fd5b90600052602060002090600302016000915090508060000160009054906101000a900473ffffffffffffffffffffffffffffffffffffffff16908060010160009054906101000a900473ffffffffffffffffffffffffffffffffffffffff16908060010160149054906101000a90046bffffffffffffffffffffffff16908060020160009054906101000a900467ffffffffffffffff16905084565b6108df6112e2565b600073ffffffffffffffffffffffffffffffffffffffff168273ffffffffffffffffffffffffffffffffffffffff1603610945576040517f9fabe1c100000000000000000000000000000000000000000000000000000000815260040160405180910390fd5b80600260008473ffffffffffffffffffffffffffffffffffffffff1673ffffffffffffffffffffffffffffffffffffffff16815260200190815260200160002060006101000a81548160ff0219169083151502179055508173ffffffffffffffffffffffffffffffffffffffff167f3139dd1a6fe945662e2ac0d59ff6d3cd48403f79863e86e03d6a84349adbee56826040516109e29190611559565b60405180910390a25050565b6109f66112e2565b601e60ff168160ff161115610a37576040517f721dbfea00000000000000000000000000000000000000000000000000000000815260040160405180910390fd5b80600060146101000a81548160ff021916908360ff1602179055507fd43a9ab1dd93b206bb3d8990c15013fbe97751f430c76bd14e3fa41708ef475781604051610a819190611590565b60405180910390a150565b60056020528160005260406000208181548110610aa857600080fd5b90600052602060002001600091509150505481565b7f000000000000000000000000000000000000000000000000000000000000000081565b60036020528060005260406000206000915054906101000a900460ff1681565b610b096112e2565b600073ffffffffffffffffffffffffffffffffffffffff168273ffffffffffffffffffffffffffffffffffffffff1603610b6f576040517f9fabe1c100000000000000000000000000000000000000000000000000000000815260040160405180910390fd5b60004790506000826bffffffffffffffffffffffff1603610bbc576040517fd0d04f6000000000000000000000000000000000000000000000000000000000815260040160405180910390fd5b80826bffffffffffffffffffffffff161115610c04576040517fdd4f110200000000000000000000000000000000000000000000000000000000815260040160405180910390fd5b60008373ffffffffffffffffffffffffffffffffffffffff16836bffffffffffffffffffffffff16604051610c3890611bd1565b60006040518083038185875af1925050503d8060008114610c75576040519150601f19603f3d011682016040523d82523d6000602084013e610c7a565b606091505b5050905080610cb5576040517f90b8ec1800000000000000000000000000000000000000000000000000000000815260040160405180910390fd5b8373ffffffffffffffffffffffffffffffffffffffff167f18fe215a001fc653596ed5ed126bd2f869ec54eda6ec7ef2a81b5bedf54a6ed284604051610cfb9190611668565b60405180910390a250505050565b6000600260003373ffffffffffffffffffffffffffffffffffffffff1673ffffffffffffffffffffffffffffffffffffffff16815260200190815260200160002060009054906101000a900460ff16610d8e576040517f91f3d25700000000000000000000000000000000000000000000000000000000815260040160405180910390fd5b60008267ffffffffffffffff161480610db557506000836bffffffffffffffffffffffff16145b15610dec576040517fe523909000000000000000000000000000000000000000000000000000000000815260040160405180910390fd5b600033848442610dfc9190611be6565b30604051610e0990611435565b610e169493929190611c22565b604051809103906000f080158015610e32573d6000803e3d6000fd5b50905060008190506001600360008373ffffffffffffffffffffffffffffffffffffffff1673ffffffffffffffffffffffffffffffffffffffff16815260200190815260200160002060006101000a81548160ff02191690831515021790555060006004805490509050600460405180608001604052808473ffffffffffffffffffffffffffffffffffffffff1681526020013373ffffffffffffffffffffffffffffffffffffffff168152602001886bffffffffffffffffffffffff1681526020018742610f019190611be6565b67ffffffffffffffff16815250908060018154018082558091505060019003906000526020600020906003020160009091909190915060008201518160000160006101000a81548173ffffffffffffffffffffffffffffffffffffffff021916908373ffffffffffffffffffffffffffffffffffffffff16021790555060208201518160010160006101000a81548173ffffffffffffffffffffffffffffffffffffffff021916908373ffffffffffffffffffffffffffffffffffffffff16021790555060408201518160010160146101000a8154816bffffffffffffffffffffffff02191690836bffffffffffffffffffffffff16021790555060608201518160020160006101000a81548167ffffffffffffffff021916908367ffffffffffffffff1602179055505050600560003373ffffffffffffffffffffffffffffffffffffffff1673ffffffffffffffffffffffffffffffffffffffff1681526020019081526020016000208190806001815401808255809150506001900390600052602060002001600090919091909150553373ffffffffffffffffffffffffffffffffffffffff168273ffffffffffffffffffffffffffffffffffffffff16827f0ef2bf7802c393948d08caf4d04a02be072741662e1757a4b7c941f583cdf9f760405160405180910390a481935050505092915050565b611102611442565b60048267ffffffffffffffff16815481106111205761111f611c67565b5b90600052602060002090600302016040518060800160405290816000820160009054906101000a900473ffffffffffffffffffffffffffffffffffffffff1673ffffffffffffffffffffffffffffffffffffffff1673ffffffffffffffffffffffffffffffffffffffff1681526020016001820160009054906101000a900473ffffffffffffffffffffffffffffffffffffffff1673ffffffffffffffffffffffffffffffffffffffff1673ffffffffffffffffffffffffffffffffffffffff1681526020016001820160149054906101000a90046bffffffffffffffffffffffff166bffffffffffffffffffffffff166bffffffffffffffffffffffff1681526020016002820160009054906101000a900467ffffffffffffffff1667ffffffffffffffff1667ffffffffffffffff16815250509050919050565b6112646112e2565b600073ffffffffffffffffffffffffffffffffffffffff168173ffffffffffffffffffffffffffffffffffffffff16036112d65760006040517f1e4fbdf70000000000000000000000000000000000000000000000000000000081526004016112cd919061163e565b60405180910390fd5b6112df81611369565b50565b6112ea61142d565b73ffffffffffffffffffffffffffffffffffffffff16611308610802565b73ffffffffffffffffffffffffffffffffffffffff16146113675761132b61142d565b6040517f118cdaa700000000000000000000000000000000000000000000000000000000815260040161135e919061163e565b60405180910390fd5b565b60008060009054906101000a900473ffffffffffffffffffffffffffffffffffffffff169050816000806101000a81548173ffffffffffffffffffffffffffffffffffffffff021916908373ffffffffffffffffffffffffffffffffffffffff1602179055508173ffffffffffffffffffffffffffffffffffffffff168173ffffffffffffffffffffffffffffffffffffffff167f8be0079c531659141344cd1fd0a4f28419497f9722a3daafe3b4186f6b6457e060405160405180910390a35050565b600033905090565b612b1b80611c9783390190565b6040518060800160405280600073ffffffffffffffffffffffffffffffffffffffff168152602001600073ffffffffffffffffffffffffffffffffffffffff16815260200160006bffffffffffffffffffffffff168152602001600067ffffffffffffffff1681525090565b600080fd5b600073ffffffffffffffffffffffffffffffffffffffff82169050919050565b60006114de826114b3565b9050919050565b6114ee816114d3565b81146114f957600080fd5b50565b60008135905061150b816114e5565b92915050565b600060208284031215611527576115266114ae565b5b6000611535848285016114fc565b91505092915050565b60008115159050919050565b6115538161153e565b82525050565b600060208201905061156e600083018461154a565b92915050565b600060ff82169050919050565b61158a81611574565b82525050565b60006020820190506115a56000830184611581565b92915050565b60006bffffffffffffffffffffffff82169050919050565b6115cc816115ab565b81146115d757600080fd5b50565b6000813590506115e9816115c3565b92915050565b60008060408385031215611606576116056114ae565b5b6000611614858286016114fc565b9250506020611625858286016115da565b9150509250929050565b611638816114d3565b82525050565b6000602082019050611653600083018461162f565b92915050565b611662816115ab565b82525050565b600060208201905061167d6000830184611659565b92915050565b6000819050919050565b61169681611683565b81146116a157600080fd5b50565b6000813590506116b38161168d565b92915050565b6000602082840312156116cf576116ce6114ae565b5b60006116dd848285016116a4565b91505092915050565b600067ffffffffffffffff82169050919050565b611703816116e6565b82525050565b600060808201905061171e600083018761162f565b61172b602083018661162f565b6117386040830185611659565b61174560608301846116fa565b95945050505050565b6117578161153e565b811461176257600080fd5b50565b6000813590506117748161174e565b92915050565b60008060408385031215611791576117906114ae565b5b600061179f858286016114fc565b92505060206117b085828601611765565b9150509250929050565b6117c381611574565b81146117ce57600080fd5b50565b6000813590506117e0816117ba565b92915050565b6000602082840312156117fc576117fb6114ae565b5b600061180a848285016117d1565b91505092915050565b6000806040838503121561182a576118296114ae565b5b6000611838858286016114fc565b9250506020611849858286016116a4565b9150509250929050565b61185c81611683565b82525050565b60006020820190506118776000830184611853565b92915050565b6000819050919050565b60006118a261189d611898846114b3565b61187d565b6114b3565b9050919050565b60006118b482611887565b9050919050565b60006118c6826118a9565b9050919050565b6118d6816118bb565b82525050565b60006020820190506118f160008301846118cd565b92915050565b6000611902826114b3565b9050919050565b611912816118f7565b811461191d57600080fd5b50565b60008135905061192f81611909565b92915050565b6000806040838503121561194c5761194b6114ae565b5b600061195a85828601611920565b925050602061196b858286016115da565b9150509250929050565b61197e816116e6565b811461198957600080fd5b50565b60008135905061199b81611975565b92915050565b600080604083850312156119b8576119b76114ae565b5b60006119c6858286016115da565b92505060206119d78582860161198c565b9150509250929050565b6000602082840312156119f7576119f66114ae565b5b6000611a058482850161198c565b91505092915050565b611a17816114d3565b82525050565b611a26816115ab565b82525050565b611a35816116e6565b82525050565b608082016000820151611a516000850182611a0e565b506020820151611a646020850182611a0e565b506040820151611a776040850182611a1d565b506060820151611a8a6060850182611a2c565b50505050565b6000608082019050611aa56000830184611a3b565b92915050565b7f4e487b7100000000000000000000000000000000000000000000000000000000600052601160045260246000fd5b6000611ae5826115ab565b9150611af0836115ab565b9250828202611afe816115ab565b9150808214611b1057611b0f611aab565b5b5092915050565b7f4e487b7100000000000000000000000000000000000000000000000000000000600052601260045260246000fd5b6000611b51826115ab565b9150611b5c836115ab565b925082611b6c57611b6b611b17565b5b828204905092915050565b6000604082019050611b8c600083018561162f565b611b996020830184611853565b9392505050565b600081905092915050565b50565b6000611bbb600083611ba0565b9150611bc682611bab565b600082019050919050565b6000611bdc82611bae565b9150819050919050565b6000611bf1826116e6565b9150611bfc836116e6565b9250828201905067ffffffffffffffff811115611c1c57611c1b611aab565b5b92915050565b6000608082019050611c37600083018761162f565b611c446020830186611659565b611c5160408301856116fa565b611c5e606083018461162f565b95945050505050565b7f4e487b7100000000000000000000000000000000000000000000000000000000600052603260045260246000fdfe6101006040526000600160006101000a8154816bffffffffffffffffffffffff02191690836bffffffffffffffffffffffff16021790555060006001600c6101000a8154816bffffffffffffffffffffffff02191690836bffffffffffffffffffffffff1602179055506000600160186101000a81548160ff02191690831515021790555034801561009057600080fd5b50604051612b1b380380612b1b83398181016040528101906100b291906102fb565b6001600081905550600073ffffffffffffffffffffffffffffffffffffffff168473ffffffffffffffffffffffffffffffffffffffff1614806101215750600073ffffffffffffffffffffffffffffffffffffffff168173ffffffffffffffffffffffffffffffffffffffff16145b15610158576040517f9fabe1c100000000000000000000000000000000000000000000000000000000815260040160405180910390fd5b8373ffffffffffffffffffffffffffffffffffffffff1660808173ffffffffffffffffffffffffffffffffffffffff1681525050826bffffffffffffffffffffffff1660c0816bffffffffffffffffffffffff168152505081426101bc9190610391565b67ffffffffffffffff1660e08167ffffffffffffffff16815250508073ffffffffffffffffffffffffffffffffffffffff1660a08173ffffffffffffffffffffffffffffffffffffffff1681525050505050506103cd565b600080fd5b600073ffffffffffffffffffffffffffffffffffffffff82169050919050565b600061024482610219565b9050919050565b61025481610239565b811461025f57600080fd5b50565b6000815190506102718161024b565b92915050565b60006bffffffffffffffffffffffff82169050919050565b61029881610277565b81146102a357600080fd5b50565b6000815190506102b58161028f565b92915050565b600067ffffffffffffffff82169050919050565b6102d8816102bb565b81146102e357600080fd5b50565b6000815190506102f5816102cf565b92915050565b6000806000806080858703121561031557610314610214565b5b600061032387828801610262565b9450506020610334878288016102a6565b9350506040610345878288016102e6565b925050606061035687828801610262565b91505092959194509250565b7f4e487b7100000000000000000000000000000000000000000000000000000000600052601160045260246000fd5b600061039c826102bb565b91506103a7836102bb565b9250828201905067ffffffffffffffff8111156103c7576103c6610362565b5b92915050565b60805160a05160c05160e0516126c161045a6000396000818161046501528181610dc401528181610e0e0152610fdb015260008181610502015281816108af01528181610b1b01528181610de8015261103f0152600081816105930152818161076a0152818161092701526116ee015260008181610a3001528181610faf015261182501526126c16000f3fe6080604052600436106101175760003560e01c80638da5cb5b116100a0578063ce63a53511610064578063ce63a5351461037f578063e9d54b01146103c0578063ed88c68e146103fd578063fb346eab14610407578063ff5adffa1461043257610126565b80638da5cb5b146102ac5780639049ac69146102d75780639b4ba435146102ee578063c255f87814610317578063cc6cb19a1461034257610126565b80634e69d560116100e75780634e69d560146101d55780635195bd29146102005780636a84a9851461022b5780636f9fb98a146102565780637d3d65221461028157610126565b8062b370441461012b578063186fdcb01461015657806329dcb0cf1461017f57806340193883146101aa57610126565b366101265761012461045b565b005b600080fd5b34801561013757600080fd5b50610140610a10565b60405161014d9190611dcc565b60405180910390f35b34801561016257600080fd5b5061017d60048036038101906101789190611ee0565b610a2e565b005b34801561018b57600080fd5b50610194610dc2565b6040516101a19190611f77565b60405180910390f35b3480156101b657600080fd5b506101bf610de6565b6040516101cc9190611dcc565b60405180910390f35b3480156101e157600080fd5b506101ea610e0a565b6040516101f79190612022565b60405180910390f35b34801561020c57600080fd5b50610215610f23565b604051610222919061205d565b60405180910390f35b34801561023757600080fd5b50610240610f78565b60405161024d9190611f77565b60405180910390f35b34801561026257600080fd5b5061026b610f92565b604051610278919061205d565b60405180910390f35b34801561028d57600080fd5b50610296610f9a565b6040516102a39190612093565b60405180910390f35b3480156102b857600080fd5b506102c1610fad565b6040516102ce91906120cf565b60405180910390f35b3480156102e357600080fd5b506102ec610fd1565b005b3480156102fa57600080fd5b5061031560048036038101906103109190612116565b611358565b005b34801561032357600080fd5b5061032c6116ec565b60405161033991906121a2565b60405180910390f35b34801561034e57600080fd5b50610369600480360381019061036491906121e9565b611710565b6040516103769190611dcc565b60405180910390f35b34801561038b57600080fd5b506103a660048036038101906103a19190612116565b61173b565b6040516103b795949392919061223e565b60405180910390f35b3480156103cc57600080fd5b506103e760048036038101906103e29190612291565b6117ce565b6040516103f49190612093565b60405180910390f35b61040561045b565b005b34801561041357600080fd5b5061041c6117fd565b6040516104299190611dcc565b60405180910390f35b34801561043e57600080fd5b5061045960048036038101906104549190612116565b61181b565b005b610463611d55565b7f000000000000000000000000000000000000000000000000000000000000000067ffffffffffffffff1642106104c6576040517f85b1d52800000000000000000000000000000000000000000000000000000000815260040160405180910390fd5b60003403610500576040517fc6e0724200000000000000000000000000000000000000000000000000000000815260040160405180910390fd5b7f00000000000000000000000000000000000000000000000000000000000000006bffffffffffffffffffffffff16600160009054906101000a90046bffffffffffffffffffffffff166bffffffffffffffffffffffff161061058f576040517f8cb8251e00000000000000000000000000000000000000000000000000000000815260040160405180910390fd5b60007f000000000000000000000000000000000000000000000000000000000000000073ffffffffffffffffffffffffffffffffffffffff166311efbf616040518163ffffffff1660e01b8152600401602060405180830381865afa1580156105fc573d6000803e3d6000fd5b505050506040513d601f19601f82011682018060405250810190610620919061230a565b90506000349050600060648360ff16836bffffffffffffffffffffffff166106489190612366565b61065291906123d7565b9050600081836106629190612408565b905080600560003373ffffffffffffffffffffffffffffffffffffffff1673ffffffffffffffffffffffffffffffffffffffff16815260200190815260200160002060008282829054906101000a90046bffffffffffffffffffffffff166106ca9190612448565b92506101000a8154816bffffffffffffffffffffffff02191690836bffffffffffffffffffffffff16021790555080600160008282829054906101000a90046bffffffffffffffffffffffff166107219190612448565b92506101000a8154816bffffffffffffffffffffffff02191690836bffffffffffffffffffffffff1602179055506000826bffffffffffffffffffffffff1611156108ad5760007f000000000000000000000000000000000000000000000000000000000000000073ffffffffffffffffffffffffffffffffffffffff16634e7ceacb6040518163ffffffff1660e01b8152600401602060405180830381865afa1580156107d3573d6000803e3d6000fd5b505050506040513d601f19601f820116820180604052508101906107f7919061249d565b905060008173ffffffffffffffffffffffffffffffffffffffff16846bffffffffffffffffffffffff1660405161082d906124fb565b60006040518083038185875af1925050503d806000811461086a576040519150601f19603f3d011682016040523d82523d6000602084013e61086f565b606091505b50509050806108aa576040517f90b8ec1800000000000000000000000000000000000000000000000000000000815260040160405180910390fd5b50505b7f00000000000000000000000000000000000000000000000000000000000000006bffffffffffffffffffffffff16600160009054906101000a90046bffffffffffffffffffffffff166bffffffffffffffffffffffff16106109255760018060186101000a81548160ff0219169083151502179055505b7f000000000000000000000000000000000000000000000000000000000000000073ffffffffffffffffffffffffffffffffffffffff166316ccc21f33836040518363ffffffff1660e01b8152600401610980929190612510565b600060405180830381600087803b15801561099a57600080fd5b505af11580156109ae573d6000803e3d6000fd5b505050503373ffffffffffffffffffffffffffffffffffffffff167fe671995dce33a7b2683f65b78152d9f3bbedfad45ec565a28342212f653a5b9b82846040516109fa929190612539565b60405180910390a250505050610a0e611d9b565b565b600160009054906101000a90046bffffffffffffffffffffffff1681565b7f000000000000000000000000000000000000000000000000000000000000000073ffffffffffffffffffffffffffffffffffffffff163373ffffffffffffffffffffffffffffffffffffffff1614610ab3576040517f30cd747100000000000000000000000000000000000000000000000000000000815260040160405180910390fd5b600073ffffffffffffffffffffffffffffffffffffffff168173ffffffffffffffffffffffffffffffffffffffff1603610b19576040517f9fabe1c100000000000000000000000000000000000000000000000000000000815260040160405180910390fd5b7f00000000000000000000000000000000000000000000000000000000000000006bffffffffffffffffffffffff16600160009054906101000a90046bffffffffffffffffffffffff166bffffffffffffffffffffffff161015610ba9576040517f78c754c900000000000000000000000000000000000000000000000000000000815260040160405180910390fd5b60006001600c9054906101000a90046bffffffffffffffffffffffff16600160009054906101000a90046bffffffffffffffffffffffff16610beb9190612408565b9050806bffffffffffffffffffffffff16836bffffffffffffffffffffffff161115610c43576040517fdd4f110200000000000000000000000000000000000000000000000000000000815260040160405180910390fd5b600060026000600460009054906101000a900467ffffffffffffffff1667ffffffffffffffff1667ffffffffffffffff1681526020019081526020016000209050838160010160006101000a8154816bffffffffffffffffffffffff02191690836bffffffffffffffffffffffff1602179055508281600101600c6101000a81548173ffffffffffffffffffffffffffffffffffffffff021916908373ffffffffffffffffffffffffffffffffffffffff1602179055508273ffffffffffffffffffffffffffffffffffffffff16600460009054906101000a900467ffffffffffffffff1667ffffffffffffffff167f25466d9bf21f5a4b190f730ff5dc6c5ea313328377af40396234224d7d2a2441888888604051610d659392919061259e565b60405180910390a36004600081819054906101000a900467ffffffffffffffff1680929190610d93906125d0565b91906101000a81548167ffffffffffffffff021916908367ffffffffffffffff16021790555050505050505050565b7f000000000000000000000000000000000000000000000000000000000000000081565b7f000000000000000000000000000000000000000000000000000000000000000081565b60607f000000000000000000000000000000000000000000000000000000000000000067ffffffffffffffff164210158015610e535750600160189054906101000a900460ff16155b15610e95576040518060400160405280600681526020017f4661696c656400000000000000000000000000000000000000000000000000008152509050610f20565b600160189054906101000a900460ff1615610ee7576040518060400160405280600781526020017f53756363657373000000000000000000000000000000000000000000000000008152509050610f20565b6040518060400160405280600681526020017f416374697665000000000000000000000000000000000000000000000000000081525090505b90565b60006001600c9054906101000a90046bffffffffffffffffffffffff16600160009054906101000a90046bffffffffffffffffffffffff16610f659190612408565b6bffffffffffffffffffffffff16905090565b600460009054906101000a900467ffffffffffffffff1681565b600047905090565b600160189054906101000a900460ff1681565b7f000000000000000000000000000000000000000000000000000000000000000081565b610fd9611d55565b7f000000000000000000000000000000000000000000000000000000000000000067ffffffffffffffff1642101561103d576040517f4ce2289a00000000000000000000000000000000000000000000000000000000815260040160405180910390fd5b7f00000000000000000000000000000000000000000000000000000000000000006bffffffffffffffffffffffff16600160009054906101000a90046bffffffffffffffffffffffff166bffffffffffffffffffffffff16106110cc576040517f0f7fe27100000000000000000000000000000000000000000000000000000000815260040160405180910390fd5b6000600560003373ffffffffffffffffffffffffffffffffffffffff1673ffffffffffffffffffffffffffffffffffffffff16815260200190815260200160002060009054906101000a90046bffffffffffffffffffffffff1690506000816bffffffffffffffffffffffff1603611170576040517ff76aef6500000000000000000000000000000000000000000000000000000000815260040160405180910390fd5b6000600560003373ffffffffffffffffffffffffffffffffffffffff1673ffffffffffffffffffffffffffffffffffffffff16815260200190815260200160002060006101000a8154816bffffffffffffffffffffffff02191690836bffffffffffffffffffffffff16021790555060003373ffffffffffffffffffffffffffffffffffffffff16826bffffffffffffffffffffffff16604051611213906124fb565b60006040518083038185875af1925050503d8060008114611250576040519150601f19603f3d011682016040523d82523d6000602084013e611255565b606091505b50509050806112fe5781600560003373ffffffffffffffffffffffffffffffffffffffff1673ffffffffffffffffffffffffffffffffffffffff16815260200190815260200160002060006101000a8154816bffffffffffffffffffffffff02191690836bffffffffffffffffffffffff1602179055506040517f90b8ec1800000000000000000000000000000000000000000000000000000000815260040160405180910390fd5b3373ffffffffffffffffffffffffffffffffffffffff167f886c1b2b2a82376847f6d741594f28408de945c8317cf00891b91ec0ea512243836040516113449190611dcc565b60405180910390a25050611356611d9b565b565b6000600560003373ffffffffffffffffffffffffffffffffffffffff1673ffffffffffffffffffffffffffffffffffffffff16815260200190815260200160002060009054906101000a90046bffffffffffffffffffffffff166bffffffffffffffffffffffff16036113f7576040517f4862d81300000000000000000000000000000000000000000000000000000000815260040160405180910390fd5b6000600260008367ffffffffffffffff1667ffffffffffffffff16815260200190815260200160002090506000801b816000015403611462576040517fe06f976a00000000000000000000000000000000000000000000000000000000815260040160405180910390fd5b600360008367ffffffffffffffff1667ffffffffffffffff16815260200190815260200160002060003373ffffffffffffffffffffffffffffffffffffffff1673ffffffffffffffffffffffffffffffffffffffff16815260200190815260200160002060009054906101000a900460ff161561150b576040517f7c9a1cf900000000000000000000000000000000000000000000000000000000815260040160405180910390fd5b6001600360008467ffffffffffffffff1667ffffffffffffffff16815260200190815260200160002060003373ffffffffffffffffffffffffffffffffffffffff1673ffffffffffffffffffffffffffffffffffffffff16815260200190815260200160002060006101000a81548160ff021916908315150217905550600560003373ffffffffffffffffffffffffffffffffffffffff1673ffffffffffffffffffffffffffffffffffffffff16815260200190815260200160002060009054906101000a90046bffffffffffffffffffffffff168160020160018282829054906101000a90046bffffffffffffffffffffffff1661160a9190612448565b92506101000a8154816bffffffffffffffffffffffff02191690836bffffffffffffffffffffffff1602179055503373ffffffffffffffffffffffffffffffffffffffff168267ffffffffffffffff167f6c979a638391a867e568d3c58bc61db3ca3ab8acfee9b1fc3f902c335e315878600560003373ffffffffffffffffffffffffffffffffffffffff1673ffffffffffffffffffffffffffffffffffffffff16815260200190815260200160002060009054906101000a90046bffffffffffffffffffffffff166040516116e09190611dcc565b60405180910390a35050565b7f000000000000000000000000000000000000000000000000000000000000000081565b60056020528060005260406000206000915054906101000a90046bffffffffffffffffffffffff1681565b60026020528060005260406000206000915090508060000154908060010160009054906101000a90046bffffffffffffffffffffffff169080600101600c9054906101000a900473ffffffffffffffffffffffffffffffffffffffff16908060020160009054906101000a900460ff16908060020160019054906101000a90046bffffffffffffffffffffffff16905085565b60036020528160005260406000206020528060005260406000206000915091509054906101000a900460ff1681565b6001600c9054906101000a90046bffffffffffffffffffffffff1681565b611823611d55565b7f000000000000000000000000000000000000000000000000000000000000000073ffffffffffffffffffffffffffffffffffffffff163373ffffffffffffffffffffffffffffffffffffffff16146118a8576040517f30cd747100000000000000000000000000000000000000000000000000000000815260040160405180910390fd5b6000600260008367ffffffffffffffff1667ffffffffffffffff16815260200190815260200160002090506000801b816000015403611913576040517fe06f976a00000000000000000000000000000000000000000000000000000000815260040160405180910390fd5b8060020160009054906101000a900460ff161561195c576040517fd6f1f94600000000000000000000000000000000000000000000000000000000815260040160405180910390fd5b60006002600160009054906101000a90046bffffffffffffffffffffffff166119859190612600565b9050806bffffffffffffffffffffffff168260020160019054906101000a90046bffffffffffffffffffffffff166bffffffffffffffffffffffff1611611a2157808260020160019054906101000a90046bffffffffffffffffffffffff166040517f5ab46175000000000000000000000000000000000000000000000000000000008152600401611a18929190612662565b60405180910390fd5b60006001600c9054906101000a90046bffffffffffffffffffffffff16600160009054906101000a90046bffffffffffffffffffffffff16611a639190612408565b9050806bffffffffffffffffffffffff168360010160009054906101000a90046bffffffffffffffffffffffff166bffffffffffffffffffffffff161115611ad7576040517fdd4f110200000000000000000000000000000000000000000000000000000000815260040160405180910390fd5b60018360020160006101000a81548160ff0219169083151502179055508260010160009054906101000a90046bffffffffffffffffffffffff166001600c8282829054906101000a90046bffffffffffffffffffffffff16611b399190612448565b92506101000a8154816bffffffffffffffffffffffff02191690836bffffffffffffffffffffffff160217905550600083600101600c9054906101000a900473ffffffffffffffffffffffffffffffffffffffff1673ffffffffffffffffffffffffffffffffffffffff168460010160009054906101000a90046bffffffffffffffffffffffff166bffffffffffffffffffffffff16604051611bdb906124fb565b60006040518083038185875af1925050503d8060008114611c18576040519150601f19603f3d011682016040523d82523d6000602084013e611c1d565b606091505b5050905080611ce85760008460020160006101000a81548160ff0219169083151502179055508360010160009054906101000a90046bffffffffffffffffffffffff166001600c8282829054906101000a90046bffffffffffffffffffffffff16611c889190612408565b92506101000a8154816bffffffffffffffffffffffff02191690836bffffffffffffffffffffffff1602179055506040517f90b8ec1800000000000000000000000000000000000000000000000000000000815260040160405180910390fd5b8467ffffffffffffffff167f318e144f554e81ec5ad67cee9f09efed8a3ca878b54a0bdb36a7e37506c8a0658560010160009054906101000a90046bffffffffffffffffffffffff16604051611d3e9190611dcc565b60405180910390a250505050611d52611d9b565b50565b600260005403611d91576040517f3ee5aeb500000000000000000000000000000000000000000000000000000000815260040160405180910390fd5b6002600081905550565b6001600081905550565b60006bffffffffffffffffffffffff82169050919050565b611dc681611da5565b82525050565b6000602082019050611de16000830184611dbd565b92915050565b600080fd5b600080fd5b600080fd5b600080fd5b600080fd5b60008083601f840112611e1657611e15611df1565b5b8235905067ffffffffffffffff811115611e3357611e32611df6565b5b602083019150836001820283011115611e4f57611e4e611dfb565b5b9250929050565b611e5f81611da5565b8114611e6a57600080fd5b50565b600081359050611e7c81611e56565b92915050565b600073ffffffffffffffffffffffffffffffffffffffff82169050919050565b6000611ead82611e82565b9050919050565b611ebd81611ea2565b8114611ec857600080fd5b50565b600081359050611eda81611eb4565b92915050565b60008060008060608587031215611efa57611ef9611de7565b5b600085013567ffffffffffffffff811115611f1857611f17611dec565b5b611f2487828801611e00565b94509450506020611f3787828801611e6d565b9250506040611f4887828801611ecb565b91505092959194509250565b600067ffffffffffffffff82169050919050565b611f7181611f54565b82525050565b6000602082019050611f8c6000830184611f68565b92915050565b600081519050919050565b600082825260208201905092915050565b60005b83811015611fcc578082015181840152602081019050611fb1565b60008484015250505050565b6000601f19601f8301169050919050565b6000611ff482611f92565b611ffe8185611f9d565b935061200e818560208601611fae565b61201781611fd8565b840191505092915050565b6000602082019050818103600083015261203c8184611fe9565b905092915050565b6000819050919050565b61205781612044565b82525050565b6000602082019050612072600083018461204e565b92915050565b60008115159050919050565b61208d81612078565b82525050565b60006020820190506120a86000830184612084565b92915050565b60006120b982611e82565b9050919050565b6120c9816120ae565b82525050565b60006020820190506120e460008301846120c0565b92915050565b6120f381611f54565b81146120fe57600080fd5b50565b600081359050612110816120ea565b92915050565b60006020828403121561212c5761212b611de7565b5b600061213a84828501612101565b91505092915050565b6000819050919050565b600061216861216361215e84611e82565b612143565b611e82565b9050919050565b600061217a8261214d565b9050919050565b600061218c8261216f565b9050919050565b61219c81612181565b82525050565b60006020820190506121b76000830184612193565b92915050565b6121c6816120ae565b81146121d157600080fd5b50565b6000813590506121e3816121bd565b92915050565b6000602082840312156121ff576121fe611de7565b5b600061220d848285016121d4565b91505092915050565b6000819050919050565b61222981612216565b82525050565b61223881611ea2565b82525050565b600060a0820190506122536000830188612220565b6122606020830187611dbd565b61226d604083018661222f565b61227a6060830185612084565b6122876080830184611dbd565b9695505050505050565b600080604083850312156122a8576122a7611de7565b5b60006122b685828601612101565b92505060206122c7858286016121d4565b9150509250929050565b600060ff82169050919050565b6122e7816122d1565b81146122f257600080fd5b50565b600081519050612304816122de565b92915050565b6000602082840312156123205761231f611de7565b5b600061232e848285016122f5565b91505092915050565b7f4e487b7100000000000000000000000000000000000000000000000000000000600052601160045260246000fd5b600061237182612044565b915061237c83612044565b925082820261238a81612044565b915082820484148315176123a1576123a0612337565b5b5092915050565b7f4e487b7100000000000000000000000000000000000000000000000000000000600052601260045260246000fd5b60006123e282612044565b91506123ed83612044565b9250826123fd576123fc6123a8565b5b828204905092915050565b600061241382611da5565b915061241e83611da5565b925082820390506bffffffffffffffffffffffff81111561244257612441612337565b5b92915050565b600061245382611da5565b915061245e83611da5565b925082820190506bffffffffffffffffffffffff81111561248257612481612337565b5b92915050565b600081519050612497816121bd565b92915050565b6000602082840312156124b3576124b2611de7565b5b60006124c184828501612488565b91505092915050565b600081905092915050565b50565b60006124e56000836124ca565b91506124f0826124d5565b600082019050919050565b6000612506826124d8565b9150819050919050565b600060408201905061252560008301856120c0565b6125326020830184611dbd565b9392505050565b600060408201905061254e6000830185611dbd565b61255b6020830184611dbd565b9392505050565b82818337600083830152505050565b600061257d8385611f9d565b935061258a838584612562565b61259383611fd8565b840190509392505050565b600060408201905081810360008301526125b9818587612571565b90506125c86020830184611dbd565b949350505050565b60006125db82611f54565b915067ffffffffffffffff82036125f5576125f4612337565b5b600182019050919050565b600061260b82611da5565b915061261683611da5565b925082612626576126256123a8565b5b828204905092915050565b600061264c61264761264284611da5565b612143565b612044565b9050919050565b61265c81612631565b82525050565b60006040820190506126776000830185612653565b6126846020830184612653565b939250505056fea2646970667358221220ede751e35df99af6b9b0a30cf2afbc192443f183211e8f0cbb355a2453f2a0c664736f6c634300081c0033a2646970667358221220f7b59f079e6af0cbcb514320d1c813e9b35cf34f8abb308952fe917488b1148564736f6c634300081c0033",
  "linkReferences": {},
  "deployedLinkReferences": {}
}